{
  "contractName": "LiquidityPool",
  "abi": [
    {
      "inputs": [
        {
          "internalType": "address",
          "name": "_tokenA",
          "type": "address"
        },
        {
          "internalType": "address",
          "name": "_tokenB",
          "type": "address"
        }
      ],
      "stateMutability": "nonpayable",
      "type": "constructor"
    },
    {
      "anonymous": false,
      "inputs": [
        {
          "indexed": true,
          "internalType": "address",
          "name": "provider",
          "type": "address"
        },
        {
          "indexed": false,
          "internalType": "uint256",
          "name": "amountA",
          "type": "uint256"
        },
        {
          "indexed": false,
          "internalType": "uint256",
          "name": "amountB",
          "type": "uint256"
        }
      ],
      "name": "LiquidityAdded",
      "type": "event"
    },
    {
      "anonymous": false,
      "inputs": [
        {
          "indexed": true,
          "internalType": "address",
          "name": "provider",
          "type": "address"
        },
        {
          "indexed": false,
          "internalType": "uint256",
          "name": "amountA",
          "type": "uint256"
        },
        {
          "indexed": false,
          "internalType": "uint256",
          "name": "amountB",
          "type": "uint256"
        }
      ],
      "name": "LiquidityRemoved",
      "type": "event"
    },
    {
      "inputs": [
        {
          "internalType": "address",
          "name": "",
          "type": "address"
        }
      ],
      "name": "liquidityProviders",
      "outputs": [
        {
          "internalType": "uint256",
          "name": "",
          "type": "uint256"
        }
      ],
      "stateMutability": "view",
      "type": "function",
      "constant": true
    },
    {
      "inputs": [],
      "name": "tokenA",
      "outputs": [
        {
          "internalType": "contract IERC20",
          "name": "",
          "type": "address"
        }
      ],
      "stateMutability": "view",
      "type": "function",
      "constant": true
    },
    {
      "inputs": [],
      "name": "tokenB",
      "outputs": [
        {
          "internalType": "contract IERC20",
          "name": "",
          "type": "address"
        }
      ],
      "stateMutability": "view",
      "type": "function",
      "constant": true
    },
    {
      "inputs": [],
      "name": "totalLiquidity",
      "outputs": [
        {
          "internalType": "uint256",
          "name": "",
          "type": "uint256"
        }
      ],
      "stateMutability": "view",
      "type": "function",
      "constant": true
    },
    {
      "inputs": [
        {
          "internalType": "uint256",
          "name": "amountA",
          "type": "uint256"
        },
        {
          "internalType": "uint256",
          "name": "amountB",
          "type": "uint256"
        }
      ],
      "name": "addLiquidity",
      "outputs": [],
      "stateMutability": "nonpayable",
      "type": "function"
    },
    {
      "inputs": [
        {
          "internalType": "uint256",
          "name": "amount",
          "type": "uint256"
        }
      ],
      "name": "removeLiquidity",
      "outputs": [],
      "stateMutability": "nonpayable",
      "type": "function"
    }
  ],
  "bytecode": "0x608060405234801561001057600080fd5b506040516110553803806110558339818101604052604081101561003357600080fd5b810190808051906020019092919080519060200190929190505050816000806101000a81548173ffffffffffffffffffffffffffffffffffffffff021916908373ffffffffffffffffffffffffffffffffffffffff16021790555080600160006101000a81548173ffffffffffffffffffffffffffffffffffffffff021916908373ffffffffffffffffffffffffffffffffffffffff1602179055505050610f75806100e06000396000f3fe608060405234801561001057600080fd5b50600436106100625760003560e01c80630fc63d101461006757806315770f921461009b5780635f64b55b146100b95780639c8f9f23146100ed5780639cd441da1461011b578063dbd9426714610153575b600080fd5b61006f6101ab565b604051808273ffffffffffffffffffffffffffffffffffffffff16815260200191505060405180910390f35b6100a36101cf565b6040518082815260200191505060405180910390f35b6100c16101d5565b604051808273ffffffffffffffffffffffffffffffffffffffff16815260200191505060405180910390f35b6101196004803603602081101561010357600080fd5b81019080803590602001909291905050506101fb565b005b6101516004803603604081101561013157600080fd5b810190808035906020019092919080359060200190929190505050610958565b005b6101956004803603602081101561016957600080fd5b81019080803573ffffffffffffffffffffffffffffffffffffffff169060200190929190505050610d6f565b6040518082815260200191505060405180910390f35b60008054906101000a900473ffffffffffffffffffffffffffffffffffffffff1681565b60035481565b600160009054906101000a900473ffffffffffffffffffffffffffffffffffffffff1681565b80600260003373ffffffffffffffffffffffffffffffffffffffff1673ffffffffffffffffffffffffffffffffffffffff1681526020019081526020016000205410156102b0576040517f08c379a00000000000000000000000000000000000000000000000000000000081526004018080602001828103825260168152602001807f496e73756666696369656e74206c69717569646974790000000000000000000081525060200191505060405180910390fd5b6000610449600160009054906101000a900473ffffffffffffffffffffffffffffffffffffffff1673ffffffffffffffffffffffffffffffffffffffff166370a08231306040518263ffffffff1660e01b8152600401808273ffffffffffffffffffffffffffffffffffffffff16815260200191505060206040518083038186803b15801561033e57600080fd5b505afa158015610352573d6000803e3d6000fd5b505050506040513d602081101561036857600080fd5b810190808051906020019092919050505060008054906101000a900473ffffffffffffffffffffffffffffffffffffffff1673ffffffffffffffffffffffffffffffffffffffff166370a08231306040518263ffffffff1660e01b8152600401808273ffffffffffffffffffffffffffffffffffffffff16815260200191505060206040518083038186803b15801561040057600080fd5b505afa158015610414573d6000803e3d6000fd5b505050506040513d602081101561042a57600080fd5b8101908080519060200190929190505050610d8790919063ffffffff16565b905060006105338261052560008054906101000a900473ffffffffffffffffffffffffffffffffffffffff1673ffffffffffffffffffffffffffffffffffffffff166370a08231306040518263ffffffff1660e01b8152600401808273ffffffffffffffffffffffffffffffffffffffff16815260200191505060206040518083038186803b1580156104db57600080fd5b505afa1580156104ef573d6000803e3d6000fd5b505050506040513d602081101561050557600080fd5b810190808051906020019092919050505086610e0f90919063ffffffff16565b610e9590919063ffffffff16565b9050600061061f83610611600160009054906101000a900473ffffffffffffffffffffffffffffffffffffffff1673ffffffffffffffffffffffffffffffffffffffff166370a08231306040518263ffffffff1660e01b8152600401808273ffffffffffffffffffffffffffffffffffffffff16815260200191505060206040518083038186803b1580156105c757600080fd5b505afa1580156105db573d6000803e3d6000fd5b505050506040513d60208110156105f157600080fd5b810190808051906020019092919050505087610e0f90919063ffffffff16565b610e9590919063ffffffff16565b905083600260003373ffffffffffffffffffffffffffffffffffffffff1673ffffffffffffffffffffffffffffffffffffffff168152602001908152602001600020600082825403925050819055508360036000828254039250508190555060008054906101000a900473ffffffffffffffffffffffffffffffffffffffff1673ffffffffffffffffffffffffffffffffffffffff1663a9059cbb33846040518363ffffffff1660e01b8152600401808373ffffffffffffffffffffffffffffffffffffffff16815260200182815260200192505050602060405180830381600087803b15801561070f57600080fd5b505af1158015610723573d6000803e3d6000fd5b505050506040513d602081101561073957600080fd5b81019080805190602001909291905050506107bc576040517f08c379a00000000000000000000000000000000000000000000000000000000081526004018080602001828103825260168152602001807f546f6b656e41207472616e73666572206661696c65640000000000000000000081525060200191505060405180910390fd5b600160009054906101000a900473ffffffffffffffffffffffffffffffffffffffff1673ffffffffffffffffffffffffffffffffffffffff1663a9059cbb33836040518363ffffffff1660e01b8152600401808373ffffffffffffffffffffffffffffffffffffffff16815260200182815260200192505050602060405180830381600087803b15801561084f57600080fd5b505af1158015610863573d6000803e3d6000fd5b505050506040513d602081101561087957600080fd5b81019080805190602001909291905050506108fc576040517f08c379a00000000000000000000000000000000000000000000000000000000081526004018080602001828103825260168152602001807f546f6b656e42207472616e73666572206661696c65640000000000000000000081525060200191505060405180910390fd5b3373ffffffffffffffffffffffffffffffffffffffff167f96cd817c6329656790ef8fba7675405193677d39619571282f5e21f3a98cd0598383604051808381526020018281526020019250505060405180910390a250505050565b6000821180156109685750600081115b6109da576040517f08c379a00000000000000000000000000000000000000000000000000000000081526004018080602001828103825260198152602001807f496e76616c6964206c697175696469747920616d6f756e74730000000000000081525060200191505060405180910390fd5b60008054906101000a900473ffffffffffffffffffffffffffffffffffffffff1673ffffffffffffffffffffffffffffffffffffffff166323b872dd3330856040518463ffffffff1660e01b8152600401808473ffffffffffffffffffffffffffffffffffffffff1681526020018373ffffffffffffffffffffffffffffffffffffffff1681526020018281526020019350505050602060405180830381600087803b158015610a8957600080fd5b505af1158015610a9d573d6000803e3d6000fd5b505050506040513d6020811015610ab357600080fd5b8101908080519060200190929190505050610b36576040517f08c379a00000000000000000000000000000000000000000000000000000000081526004018080602001828103825260168152602001807f546f6b656e41207472616e73666572206661696c65640000000000000000000081525060200191505060405180910390fd5b600160009054906101000a900473ffffffffffffffffffffffffffffffffffffffff1673ffffffffffffffffffffffffffffffffffffffff166323b872dd3330846040518463ffffffff1660e01b8152600401808473ffffffffffffffffffffffffffffffffffffffff1681526020018373ffffffffffffffffffffffffffffffffffffffff1681526020018281526020019350505050602060405180830381600087803b158015610be757600080fd5b505af1158015610bfb573d6000803e3d6000fd5b505050506040513d6020811015610c1157600080fd5b8101908080519060200190929190505050610c94576040517f08c379a00000000000000000000000000000000000000000000000000000000081526004018080602001828103825260168152602001807f546f6b656e42207472616e73666572206661696c65640000000000000000000081525060200191505060405180910390fd5b610ca78183610d8790919063ffffffff16565b600260003373ffffffffffffffffffffffffffffffffffffffff1673ffffffffffffffffffffffffffffffffffffffff16815260200190815260200160002060008282540192505081905550610d068183610d8790919063ffffffff16565b6003600082825401925050819055503373ffffffffffffffffffffffffffffffffffffffff167fac1d76749e5447b7b16f5ab61447e1bd502f3bb4807af3b28e620d1700a6ee458383604051808381526020018281526020019250505060405180910390a25050565b60026020528060005260406000206000915090505481565b600080828401905083811015610e05576040517f08c379a000000000000000000000000000000000000000000000000000000000815260040180806020018281038252601b8152602001807f536166654d6174683a206164646974696f6e206f766572666c6f77000000000081525060200191505060405180910390fd5b8091505092915050565b600080831415610e225760009050610e8f565b6000828402905082848281610e3357fe5b0414610e8a576040517f08c379a0000000000000000000000000000000000000000000000000000000008152600401808060200182810382526021815260200180610f1f6021913960400191505060405180910390fd5b809150505b92915050565b6000808211610f0c576040517f08c379a000000000000000000000000000000000000000000000000000000000815260040180806020018281038252601a8152602001807f536166654d6174683a206469766973696f6e206279207a65726f00000000000081525060200191505060405180910390fd5b818381610f1557fe5b0490509291505056fe536166654d6174683a206d756c7469706c69636174696f6e206f766572666c6f77a26469706673582212208d3d69a7b3cefd5c964dbacda5d2696387b863105ff54c4a3eac605e3f50afcd64736f6c63430007060033",
  "immutableReferences": {},
  "source": "// SPDX-License-Identifier: MIT\r\npragma solidity >=0.6.0 <0.8.0;\r\nimport \"@openzeppelin/contracts/token/ERC20/IERC20.sol\";\r\nimport \"@openzeppelin/contracts/math/SafeMath.sol\";\r\n\r\ncontract LiquidityPool {\r\n    using SafeMath for uint256;\r\n\r\n    IERC20 public tokenA;\r\n    IERC20 public tokenB;\r\n\r\n    mapping(address => uint256) public liquidityProviders;\r\n    uint256 public totalLiquidity;\r\n\r\n    event LiquidityAdded(address indexed provider, uint256 amountA, uint256 amountB);\r\n    event LiquidityRemoved(address indexed provider, uint256 amountA, uint256 amountB);\r\n\r\n    constructor(address _tokenA, address _tokenB) {\r\n        tokenA = IERC20(_tokenA);\r\n        tokenB = IERC20(_tokenB);\r\n    }\r\n\r\n    function addLiquidity(uint256 amountA, uint256 amountB) external {\r\n        require(amountA > 0 && amountB > 0, \"Invalid liquidity amounts\");\r\n\r\n        require(\r\n            tokenA.transferFrom(msg.sender, address(this), amountA),\r\n            \"TokenA transfer failed\"\r\n        );\r\n        require(\r\n            tokenB.transferFrom(msg.sender, address(this), amountB),\r\n            \"TokenB transfer failed\"\r\n        );\r\n\r\n        liquidityProviders[msg.sender] += amountA.add(amountB);\r\n        totalLiquidity += amountA.add(amountB);\r\n\r\n        emit LiquidityAdded(msg.sender, amountA, amountB);\r\n    }\r\n\r\n    function removeLiquidity(uint256 amount) external {\r\n        require(\r\n            liquidityProviders[msg.sender] >= amount,\r\n            \"Insufficient liquidity\"\r\n        );\r\n\r\n        uint256 totalPoolLiquidity = tokenA.balanceOf(address(this)).add(\r\n            tokenB.balanceOf(address(this))\r\n        );\r\n\r\n        uint256 withdrawA = amount.mul(tokenA.balanceOf(address(this))).div(totalPoolLiquidity);\r\n        uint256 withdrawB = amount.mul(tokenB.balanceOf(address(this))).div(totalPoolLiquidity);\r\n\r\n        liquidityProviders[msg.sender] -= amount;\r\n        totalLiquidity -= amount;\r\n\r\n        require(tokenA.transfer(msg.sender, withdrawA), \"TokenA transfer failed\");\r\n        require(tokenB.transfer(msg.sender, withdrawB), \"TokenB transfer failed\");\r\n\r\n        emit LiquidityRemoved(msg.sender, withdrawA, withdrawB);\r\n    }\r\n}",
  "sourcePath": "C:\\Users\\Rahul\\Desktop\\ClaudeTokens\\liquidity-pool-local\\contracts\\LiquidityPool.sol",
  "compiler": {
    "name": "solc",
    "version": "0.7.6+commit.7338295f.Emscripten.clang"
  },
  "schemaVersion": "3.4.16",
  "updatedAt": "2025-01-15T19:31:15.800Z",
  "networkType": "ethereum",
  "devdoc": {
    "kind": "dev",
    "methods": {},
    "version": 1
  },
  "userdoc": {
    "kind": "user",
    "methods": {},
    "version": 1
  }
}